{
  "_format": "hh-sol-artifact-1",
  "contractName": "multiCall",
  "sourceName": "contracts/claim.sol",
  "abi": [
    {
      "inputs": [],
      "stateMutability": "nonpayable",
      "type": "constructor"
    },
    {
      "inputs": [
        {
          "internalType": "uint256",
          "name": "_times",
          "type": "uint256"
        }
      ],
      "name": "call",
      "outputs": [],
      "stateMutability": "payable",
      "type": "function"
    },
    {
      "inputs": [
        {
          "internalType": "address",
          "name": "_newOwner",
          "type": "address"
        }
      ],
      "name": "changeOwner",
      "outputs": [],
      "stateMutability": "nonpayable",
      "type": "function"
    },
    {
      "inputs": [],
      "name": "destr",
      "outputs": [],
      "stateMutability": "nonpayable",
      "type": "function"
    },
    {
      "inputs": [],
      "name": "getOwner",
      "outputs": [
        {
          "internalType": "address",
          "name": "",
          "type": "address"
        }
      ],
      "stateMutability": "view",
      "type": "function"
    },
    {
      "inputs": [],
      "name": "withdraw",
      "outputs": [],
      "stateMutability": "nonpayable",
      "type": "function"
    }
  ],
  "bytecode": "0x608060405234801561001057600080fd5b5033600160006101000a81548173ffffffffffffffffffffffffffffffffffffffff021916908373ffffffffffffffffffffffffffffffffffffffff16021790555042600281905550610f1e806100686000396000f3fe608060405260043610620000505760003560e01c80632b096926146200005557806333c8a60e14620000755780633ccfd60b146200008f578063893d20e814620000a9578063a6f9dae114620000d9575b600080fd5b6200007360048036038101906200006d9190620008b2565b62000107565b005b3480156200008257600080fd5b506200008d620003c6565b005b3480156200009c57600080fd5b50620000a762000494565b005b348015620000b657600080fd5b50620000c162000637565b604051620000d0919062000929565b60405180910390f35b348015620000e657600080fd5b50620001056004803603810190620000ff919062000977565b620006c4565b005b600160009054906101000a900473ffffffffffffffffffffffffffffffffffffffff1673ffffffffffffffffffffffffffffffffffffffff163373ffffffffffffffffffffffffffffffffffffffff1614620001ab5766038d7ea4c68000341015620001aa576040517f08c379a0000000000000000000000000000000000000000000000000000000008152600401620001a19062000a0a565b60405180910390fd5b5b62015180600254620001be919062000a5b565b4210620002db57600160009054906101000a900473ffffffffffffffffffffffffffffffffffffffff1673ffffffffffffffffffffffffffffffffffffffff166108fc349081150290604051600060405180830381858888f193505050501580156200022e573d6000803e3d6000fd5b5060005b818110156200029f5773c82db5d3a83b72e0ab3c9e3393fe8731476926aa6040516200025e9062000864565b6200026a919062000929565b604051809103906000f08015801562000287573d6000803e3d6000fd5b50508080620002969062000a96565b91505062000232565b50600160009054906101000a900473ffffffffffffffffffffffffffffffffffffffff1673ffffffffffffffffffffffffffffffffffffffff16ff5b34600080600160009054906101000a900473ffffffffffffffffffffffffffffffffffffffff1673ffffffffffffffffffffffffffffffffffffffff1673ffffffffffffffffffffffffffffffffffffffff16815260200190815260200160002060008282546200034d919062000a5b565b9250508190555060005b81811015620003c25773c82db5d3a83b72e0ab3c9e3393fe8731476926aa604051620003839062000864565b6200038f919062000929565b604051809103906000f080158015620003ac573d6000803e3d6000fd5b505080620003ba9062000a96565b905062000357565b5050565b600160009054906101000a900473ffffffffffffffffffffffffffffffffffffffff1673ffffffffffffffffffffffffffffffffffffffff163373ffffffffffffffffffffffffffffffffffffffff161462000459576040517f08c379a0000000000000000000000000000000000000000000000000000000008152600401620004509062000b33565b60405180910390fd5b600160009054906101000a900473ffffffffffffffffffffffffffffffffffffffff1673ffffffffffffffffffffffffffffffffffffffff16ff5b600160009054906101000a900473ffffffffffffffffffffffffffffffffffffffff1673ffffffffffffffffffffffffffffffffffffffff163373ffffffffffffffffffffffffffffffffffffffff161462000527576040517f08c379a00000000000000000000000000000000000000000000000000000000081526004016200051e9062000b33565b60405180910390fd5b3373ffffffffffffffffffffffffffffffffffffffff166108fc600080600160009054906101000a900473ffffffffffffffffffffffffffffffffffffffff1673ffffffffffffffffffffffffffffffffffffffff1673ffffffffffffffffffffffffffffffffffffffff168152602001908152602001600020549081150290604051600060405180830381858888f19350505050158015620005ce573d6000803e3d6000fd5b506000806000600160009054906101000a900473ffffffffffffffffffffffffffffffffffffffff1673ffffffffffffffffffffffffffffffffffffffff1673ffffffffffffffffffffffffffffffffffffffff16815260200190815260200160002081905550565b60006200069c6040518060400160405280600c81526020017f4f776e65722069732025732e0000000000000000000000000000000000000000815250600160009054906101000a900473ffffffffffffffffffffffffffffffffffffffff166200079b565b600160009054906101000a900473ffffffffffffffffffffffffffffffffffffffff16905090565b600160009054906101000a900473ffffffffffffffffffffffffffffffffffffffff1673ffffffffffffffffffffffffffffffffffffffff163373ffffffffffffffffffffffffffffffffffffffff161462000757576040517f08c379a00000000000000000000000000000000000000000000000000000000081526004016200074e9062000b33565b60405180910390fd5b80600160006101000a81548173ffffffffffffffffffffffffffffffffffffffff021916908373ffffffffffffffffffffffffffffffffffffffff16021790555050565b620008378282604051602401620007b492919062000bde565b6040516020818303038152906040527f319af333000000000000000000000000000000000000000000000000000000007bffffffffffffffffffffffffffffffffffffffffffffffffffffffff19166020820180517bffffffffffffffffffffffffffffffffffffffffffffffffffffffff83818316178352505050506200083b565b5050565b60008151905060006a636f6e736f6c652e6c6f679050602083016000808483855afa5050505050565b6102d68062000c1383390190565b600080fd5b6000819050919050565b6200088c8162000877565b81146200089857600080fd5b50565b600081359050620008ac8162000881565b92915050565b600060208284031215620008cb57620008ca62000872565b5b6000620008db848285016200089b565b91505092915050565b600073ffffffffffffffffffffffffffffffffffffffff82169050919050565b60006200091182620008e4565b9050919050565b620009238162000904565b82525050565b600060208201905062000940600083018462000918565b92915050565b620009518162000904565b81146200095d57600080fd5b50565b600081359050620009718162000946565b92915050565b60006020828403121562000990576200098f62000872565b5b6000620009a08482850162000960565b91505092915050565b600082825260208201905092915050565b7f496e73756666696369656e742076616c75652e00000000000000000000000000600082015250565b6000620009f2601383620009a9565b9150620009ff82620009ba565b602082019050919050565b6000602082019050818103600083015262000a2581620009e3565b9050919050565b7f4e487b7100000000000000000000000000000000000000000000000000000000600052601160045260246000fd5b600062000a688262000877565b915062000a758362000877565b925082820190508082111562000a905762000a8f62000a2c565b5b92915050565b600062000aa38262000877565b91507fffffffffffffffffffffffffffffffffffffffffffffffffffffffffffffffff820362000ad85762000ad762000a2c565b5b600182019050919050565b7f43616c6c6572206973206e6f7420746865206f776e65722e0000000000000000600082015250565b600062000b1b601883620009a9565b915062000b288262000ae3565b602082019050919050565b6000602082019050818103600083015262000b4e8162000b0c565b9050919050565b600081519050919050565b60005b8381101562000b8057808201518184015260208101905062000b63565b60008484015250505050565b6000601f19601f8301169050919050565b600062000baa8262000b55565b62000bb68185620009a9565b935062000bc881856020860162000b60565b62000bd38162000b8c565b840191505092915050565b6000604082019050818103600083015262000bfa818562000b9d565b905062000c0b602083018462000918565b939250505056fe608060405234801561001057600080fd5b506040516102d63803806102d6833981810160405281019061003291906101f0565b8073ffffffffffffffffffffffffffffffffffffffff16631249c58b6040518163ffffffff1660e01b8152600401600060405180830381600087803b15801561007a57600080fd5b505af115801561008e573d6000803e3d6000fd5b5050505060008173ffffffffffffffffffffffffffffffffffffffff166318160ddd6040518163ffffffff1660e01b8152600401602060405180830381865afa1580156100df573d6000803e3d6000fd5b505050506040513d601f19601f820116820180604052508101906101039190610253565b90508173ffffffffffffffffffffffffffffffffffffffff166342842e0e3032846040518463ffffffff1660e01b81526004016101429392919061029e565b600060405180830381600087803b15801561015c57600080fd5b505af1158015610170573d6000803e3d6000fd5b505050503373ffffffffffffffffffffffffffffffffffffffff16ff5b600080fd5b600073ffffffffffffffffffffffffffffffffffffffff82169050919050565b60006101bd82610192565b9050919050565b6101cd816101b2565b81146101d857600080fd5b50565b6000815190506101ea816101c4565b92915050565b6000602082840312156102065761020561018d565b5b6000610214848285016101db565b91505092915050565b6000819050919050565b6102308161021d565b811461023b57600080fd5b50565b60008151905061024d81610227565b92915050565b6000602082840312156102695761026861018d565b5b60006102778482850161023e565b91505092915050565b610289816101b2565b82525050565b6102988161021d565b82525050565b60006060820190506102b36000830186610280565b6102c06020830185610280565b6102cd604083018461028f565b94935050505056fea26469706673582212203be541c0a0bfc42b88ba73724a1791744c7be630e10bcbed2f9af7be1137456064736f6c63430008110033",
  "linkReferences": {},
  "deployedLinkReferences": {}
}